:020000040800F2
:10000000A8070020612600082D0700082F07000818
:1000100033070008370700083B070008000000000E
:100020000000000000000000000000003F07000882
:1000300041070008000000004307000845070008CA
:100040007B2600087B2600087B2600087B2600080C
:100050007B2600087B2600087B2600087B260008FC
:100060007B2600087B2600087B2600087B260008EC
:100070007B2600087B2600087B2600087B260008DC
:100080007B2600087B2600087B2600087B260008CC
:100090007B2600087B2600087B2600087B260008BC
:1000A0007B2600087B2600087B260008A3090008A1
:1000B000A10900089F0900089D0900087B26000887
:1000C0007B2600087B2600087B2600087B2600088C
:1000D0007B260008A50900087B2600087B2600086F
:1000E0007B2600087B2600087B26000800F002F82B
:1000F00000F03AF80AA090E8000C82448344AAF188
:100100000107DA4501D100F02FF8AFF2090EBAE885
:100110000F0013F0010F18BFFB1A43F0010318473B
:100120007C3400009C340000103A24BF78C878C1A9
:10013000FAD8520724BF30C830C144BF04680C60ED
:10014000704700000023002400250026103A28BF35
:1001500078C1FBD8520728BF30C148BF0B60704739
:100160001FB51FBD10B510BD02F04FFC1146FFF7C3
:10017000F7FF00F009F802F06DFC03B4FFF7F2FF9F
:1001800003BC02F071FC00002021354802F09CFB0A
:100190002021344802F098FB1C21334802F094FBE4
:1001A0001C21324802F090FB1821314802F08CFBF0
:1001B0001C21304802F088FB00202F4908602849A4
:1001C000C8604FF4166088614042C86101208860B1
:1001D0002A48254908602A484860002088604FF472
:1001E0001660204988614042C86101208860234828
:1001F0001E490860224848600020886000211C4A8F
:100200009160D1601F481B4908601F4848604FF04B
:100210007C50886042F622601C49086000F050F96A
:1002200000F059F900F016F900F097F900F07EF9A6
:10023000012240F22551164801F0DBF90121144852
:1002400001F0CBF94FF0E020006940F001004FF0E1
:10025000E021086100F0B4F900F008FA00BFFEE701
:10026000500000207000002090000020AC00002012
:10027000E000002014010020000000200000C8421F
:10028000CDCCCC3D8FC2753C95BFD6331400002039
:10029000003801402DE9F04704460D46E868286122
:1002A000D4E90312881A02F0BDFFE860E9686869C2
:1002B00002F078FE6861A06802F0B4FF0646D5E956
:1002C000030103F093F80746314602F0CDFEA86122
:1002D000A968A86902F0BEFF80466968686902F0F3
:1002E000B9FF81462968E86802F0B4FF82464946B2
:1002F00002F058FE0746414602F054FE064602F060
:1003000075FF6061D4E90501884205DCE169606937
:10031000884201DB606906E0D4E90501884201DD1D
:10032000A06900E0E06960616069BDE8F0872DE9DF
:10033000FC5F81460C469246DAF80820DAF8101085
:1003400001FB02F002F0A1FC0746D9E902532A465C
:1003500002F0C4FBC9E90201E0682061D9E9025357
:100360002A46D9E90071384602F006FDCDE90001C0
:1003700002F082FBE060E168606902F013FE6061F8
:10038000DAF8080002F04EFF0546D4E9030103F055
:100390002DF80646294602F067FEA061A168A06913
:1003A00002F058FF07466168606902F053FF80461B
:1003B0002168E06802F04EFF8346414602F0F2FDFC
:1003C0000646394602F0EEFD054602F0BFFDC9E9DA
:1003D0000401D9E90421104602F028FCCAF80C00F7
:1003E0000020BDE8FC9F70B504460E4660682060A2
:1003F000304602F00EF960606068B0F5005F09DA1F
:100400002068B0F5504F05DDD4E90010401A00F522
:10041000803519E06068B0F5504F0ADD2068B0F50E
:10042000005F06DAD4E90001401A00F58030454249
:100430000AE0D4E90010884203DDD4E90010451A2F
:1004400002E0D4E90010451AA06895FBF0F02061A5
:10045000002070BD30B5AB4800684FF47A72B0FB35
:10046000F2F1B1F1807F01D301201DE021F07F4046
:10047000401E4FF0E022506150170F22002807DA8B
:1004800013071D0EA04B00F00F04241F1D5503E0A1
:1004900013071C0E9D4B1C5400BF00204FF0E022A0
:1004A000906107201061002008B100BFFEE74FF007
:1004B000E020006920F001004FF0E021086130BD2C
:1004C00010B5012146F61C0000F054FF0121072061
:1004D00000F05DFF10BD08B54FF47070ADF800007E
:1004E00003208DF8020018208DF803006946884823
:1004F00000F084FC4FF47050ADF8000003208DF83C
:10050000020010208DF803006946814800F076FC57
:10051000C520ADF8000003208DF8020028208DF8DA
:10052000030069467B4800F069FC08BD08B54FF43C
:10053000C06000F095FB25208DF8000000208DF8AC
:1005400001008DF8020001208DF80300684600F0DC
:100550008CFB684600F089FB08BD00B585B04FF400
:100560000070ADF8000018208DF8030003208DF80E
:1005700002006946684800F041FC4FF48060ADF825
:10058000000004208DF8030003208DF80200694666
:10059000614800F033FC4FF4964001900020ADF824
:1005A0000800ADF80A00ADF80C00ADF810000C2002
:1005B000ADF80E0001A9594800F083FF05B000BD59
:1005C00000B587B0C320ADF8180004208DF81B00DB
:1005D00006A9514800F012FC0121084600F0D7FEA0
:1005E0000121022000F0D3FE4D4801F02BF94FF01D
:1005F000804001F027F90020ADF80C004FF6FF70A5
:10060000ADF810000020ADF81200ADF80E0003A9FF
:10061000434801F0EBF903A94FF0804001F0E6F9FF
:1006200000231A4603213E4801F0EFFD00231A463D
:1006300003214FF0804001F0E8FD684601F015FD10
:100640000620ADF808006946364801F062FC6946AC
:100650004FF0804001F05DFC0121314801F022FDA6
:100660000121880701F01EFD07B000BD00B587B06D
:100670000020ADF81000ADF8120041F28830ADF85E
:1006800014000020ADF816008DF8180004A92648C3
:1006900001F0ACF97020ADF800000120ADF80200C7
:1006A0000420ADF8040040F6C410ADF806000220A6
:1006B000ADF808000020ADF80A004FF48070ADF8E6
:1006C0000C000020ADF80E006946174801F0CBF988
:1006D00040F6C410ADF806006946134801F005FA6B
:1006E0000821114801F00EFE08210F4801F013FE09
:1006F00001210D4801F0D6FC01210B4801F0DEFC80
:1007000007B000BD3800002018ED00E000E400E074
:10071000000C014000100140000801400038014079
:1007200000040040002C014000080040704700BF5A
:10073000FEE700BFFEE700BFFEE700BFFEE7704731
:10074000704770472DE9F0470121FE4800F0E9FBB2
:10075000FD4908700846007880B90020FB49087000
:10076000FB480078401CFA490870084600780528C4
:100770001EDD00200870F749087019E0F348007882
:10078000401CF24908700020F1490870EF480078D9
:1007900005280DDD0020ED490870EE48007838B9D5
:1007A0000120EC490870EC48C0680A38EA49C86082
:1007B0000421E44800F0B5FBE849087008460078D9
:1007C00080B90020E6490870E6480078401CE549F9
:1007D00008700846007805281EDD00200870E249F0
:1007E000087019E0DE480078401CDD4908700020E0
:1007F000DC490870DA48007805280DDD0020D8496A
:100800000870D948007838B90120D7490870D24813
:10081000C0680A30D049C8604021CA4800F081FB56
:10082000D24908700846007880B90020D049087085
:10083000D0480078401CCF49087008460078052849
:100840002EDD00200870CC49087029E0C8480078E7
:10085000401CC74908700020C6490870C448007889
:1008600005281DDD0020C2490870C3480078B8B9CA
:100870000120C1490870C1480068401CBF49086098
:1008800008460068BE490968884209DBBD4800681F
:10089000BD4909680844BB4908600020B7490860A1
:1008A000BA48D0E90221104602F016FE0546B848C3
:1008B0000268D317284601F0E3FF0746B4490968E8
:1008C00007FB01F002F0E1F98046B048D0E902539D
:1008D0002A46404602F044FAAC4AC2E90201A9485D
:1008E0000068C01BA74908600968A94A126801FB93
:1008F00002F002F0CAF9A54A03C24FF08041A548B0
:10090000FFF771FDA34AA449A048FFF710FDA349D2
:10091000A048FFF7BFFC0446002C0BDB00BF4FF4E0
:1009200080619F4800F017FB4FF400619C4800F085
:1009300014FB0AE064424FF40061994800F00BFB9D
:100940004FF48061964800F008FB96490C80964968
:100950008148FFF748FD95497F48FFF79BFC044617
:10096000002C0BDB00BF4FF480518D4800F0F3FAF0
:100970004FF400518A4800F0F0FA0AE064424FF464
:100980000051874800F0E7FA4FF48051844800F0A6
:10099000E4FA8449091F0C80BDE8F087704770476E
:1009A000704770472DE9F041814800F087FEC7B2DB
:1009B00039467F4800F07EFE7E48007820B101284D
:1009C00017D002282DD126E0EE2F08D10120794939
:1009D00008700020784908707849087008E0002005
:1009E000754908707349087074490870BDE8F08152
:1009F0001FE0AA2F06D102206E49087001206F491E
:100A0000087007E000206C4908706A4908706B495B
:100A10000870EBE70DE069480078401C67490870F2
:100A200007E0002064490870624908706349087053
:100A3000DCE700BF62486149097847545F480078A5
:100A40000B281ADB5E48807A60B95D48C07ABB2803
:100A500008D10120584908700020564908705749AC
:100A600008700AE000205449087052490870534940
:100A700008703949C860464908604F480078012825
:100A80005ED14F4880783E4908604D48C0783E4965
:100A9000086008460068022808DC4A483E490860A9
:100AA000494848604FF07C50886025E0364800682F
:100AB000032808D1454838490860434848604FF04A
:100AC0007C50886018E030480068042808D140480D
:100AD000314908603C4848604FF07C5088600BE02A
:100AE00029480068042807DD3A482B490860364841
:100AF00048604FF07C5088603148407900F00F0624
:100B00002F484079050905EB850006EB40042C4889
:100B1000807900F00F062A488079050905EB8500E9
:100B200006EB400004EBC40101EB041100EB81046F
:100B30002348C07900F00F062148C07905094BE031
:100B40007CE00000001001400C0000200E0000209E
:100B50000F0000200D000020500000201000002099
:100B600012000020130000201100002008000020C7
:100B70000A0000200B0000200900002000000020D7
:100B800018000020040000201C000020E0000020CD
:100B9000140000207000002014010020AC00002090
:100BA000000C014038080040000400409000002084
:100BB00000380140210000202200002020000020F9
:100BC000300100208FC2753C95BFD6330AD7233C35
:100BD000F4FDD43BBC74933B05EB850006EB400071
:100BE00004EBC40101EB041100EB81041748007908
:100BF00018B960421649086005E0144800790128D8
:100C000001D1134804601148407A00F00F060F48E4
:100C1000407A050905EB850006EB40040B48007A95
:100C200018B960420B49C86005E00848007A0128FD
:100C300001D10848C46000200749087040F22551DE
:100C4000064800F0E5FD00BFD0E6000030010020BE
:100C50001400002050000020220000200038014035
:100C600031490143314A1160704770B500210023BA
:100C70000F22C47804B32D4C246804F4E064C4F556
:100C8000E064210AC1F10403CA40447804FA03F184
:100C90008478144021430901254C0678A155047835
:100CA00004F01F050124AC4005786D11AD0005F17D
:100CB000E025C5F8004109E0047804F01F0501248F
:100CC000AC401C4D0678761145F8264070BD1A4A96
:100CD0000A400243154B1B1F1A60704739B1134A73
:100CE000121D12680243114B1B1D1A6006E00F4AC9
:100CF000121D126882430D4B1B1D1A607047042899
:100D000008D14FF0E021096941F004014FF0E022E1
:100D1000116107E04FF0E021096921F004014FF073
:100D2000E0221161704700000000FA050CED00E0C0
:100D300000E400E080E100E080FFFF1F10B5044602
:100D4000CC48844208D10121042000F02DFB002171
:100D5000042000F029FB46E0C748844208D1012165
:100D6000082000F021FB0021082000F01DFB3AE0E4
:100D7000C248844208D10121102000F015FB002157
:100D8000102000F011FB2EE0BD48844208D1012163
:100D9000202000F009FB0021202000F005FB22E0CC
:100DA000B848844208D10121402000F0FDFA00211A
:100DB000402000F0F9FA16E0B348844208D101213E
:100DC000802000F0F1FA0021802000F0EDFA0AE026
:100DD000AE48844207D10121801500F0E5FA0021D8
:100DE000A01500F0E1FA10BD10B50121084600F091
:100DF000DBFA0021012000F0D7FA10BD2DE9F04107
:100E0000024600250026002000230024002791F838
:100E100003C00CF00F0591F803C00CF0100CBCF1EE
:100E2000000F03D091F802C04CEA050591F800C00C
:100E3000BCF1000F31D0146800202BE04FF0010C02
:100E40000CFA00F3B1F800C00CEA03069E4220D170
:100E500083004FF00F0C0CFA03F7BC4305FA03FCB8
:100E60004CEA040491F803C0BCF1280F06D14FF0FE
:100E7000010C0CFA00FCC2F814C00AE091F803C09F
:100E8000BCF1480F05D14FF0010C0CFA00FCC2F880
:100E900010C0401C0828D1D31460B1F800C0BCF1C8
:100EA000FF0F34DD546800202EE000F1080C4FF0F5
:100EB000010808FA0CF3B1F800C00CEA03069E42E0
:100EC00021D183004FF00F0C0CFA03F7BC4305FA55
:100ED00003FC4CEA040491F803C0BCF1280F05D1CF
:100EE00000F1080C08FA0CF8C2F8148091F803C05D
:100EF000BCF1480F07D100F1080C4FF0010808FAC7
:100F00000CF8C2F81080401C0828CED35460BDE80D
:100F1000F0814FF6FF710180022181700421C170C0
:100F200070470246002093680B400BB1012000E09F
:100F3000002070470146886880B270470246002052
:100F4000D3680B400BB1012000E000207047014640
:100F5000C86880B2704701617047416170470AB14B
:100F6000016100E041617047C16070474FF4803219
:100F70000A438261816182618269826970470246A7
:100F80000020434B18684FF68073184040EA021067
:100F900008433F4B186070473E49C8617047F0B541
:100FA0000A46002300240021002500F00046B6F187
:100FB000004F02D1364EF16901E0354E7168C0F341
:100FC000034583B200F44016B6F5401F08D121F066
:100FD00070612F4E766826F070662D4F7E6012E0AD
:100FE00000F48016B6F5801F06D1032606FA05F434
:100FF000A14341F0706106E0460D360103FA06F6A2
:10100000B14341F0706122B1460D360103FA06F694
:10101000314300F00046B6F1004F02D11C4EF161A1
:1010200001E01B4E7160F0BD30B500228B071C0F34
:101030000F2303FA04F2164B08338C1053F82430B4
:101040009343134C08348D1044F8253023468C10FC
:1010500053F824308C07240F00FA04F423430C4C7B
:1010600008348D1044F8253030BD0A49DC31086061
:101070007047000000080140000C014000100140D2
:101080000014014000180140001C014000200140F4
:101090000000014000002042DF48006840F00100ED
:1010A000DD49086008464068DC490840DA49486084
:1010B00008460068DA490840D749086008460068D1
:1010C00020F4802008600846406820F4FE00486054
:1010D0004FF41F0088607047CF49096821F48031C0
:1010E000CD4A11601146096821F480211160B0F5E4
:1010F000803F03D0B0F5802F0ED106E0C6490968C5
:1011000041F48031C44A116007E0C349096841F4E1
:10111000A021C14A116000E000BF00BF704710B5B8
:1011200001460022002300204A11012A02D1BA4CB4
:10113000236806E0022A02D1B74C236A01E0B64CCC
:10114000636A01F01F02012494401C400CB101208D
:1011500000E0002010BD38B50020009000240025DC
:1011600000BF3120FFF7DBFF05460098401C0090D0
:101170000098B0F5A06F01D0002DF2D03120FFF71C
:10118000CEFF08B1012400E00024204638BD01460E
:101190000020A14A106820F0F80040EAC100106069
:1011A0007047A04908607047024600209A4B586873
:1011B00020F47C1042EA01031843974B58607047B3
:1011C00098490866704701460020934A506820F00D
:1011D00003000843506070478F48406800F00C00DF
:1011E0007047014600208C4A506820F0F000084308
:1011F0005060704701460020874A506820F4E06044
:1012000008435060704701460020834A506820F42C
:10121000605040EAC1005060704729B17E4A527A5E
:1012200002437D4B5A7204E07B4A527A82437A4BE6
:101230005A7270477B49D8310860704701460020D8
:10124000754A506820F440400843506070470021C0
:10125000714A20321170704A82F82010012802D0A1
:1012600004280AD104E001216B4A2032117005E004
:101270000521694A2032117000E000BF00BF7047AD
:101280006949086070476449096A0143624A11620A
:101290007047654944390860704730B50021002225
:1012A000002400235C4D6D6805F00C0121B1042978
:1012B00005D0082923D105E05C4D056022E05B4D97
:1012C00005601FE0544D6D6805F47012524D6D6855
:1012D00005F48034022505EB92421CB9544D554368
:1012E00005600BE04C4D6D6805F400351DB1504DA7
:1012F0005543056002E04D4D5543056002E04B4DFE
:10130000056000BF00BF444D6D6805F0F00109099C
:10131000484D6B5C0568DD4045603F4D6D6805F4E8
:10132000E061090A434D6B5C4568DD4085603A4DDC
:101330006D6805F46051C90A3E4D6B5C4568DD403F
:10134000C560354D6D6805F44041890B3A4D6B5CC5
:10135000C568B5FBF3F5056130BD29B12E4A526968
:1013600002432D4B5A6104E02B4A526982432A4BB7
:101370005A61704729B1284A92690243264B9A6103
:1013800004E0254A92698243234B9A61704729B150
:10139000214AD2690243204BDA6104E01E4AD26935
:1013A00082431D4BDA61704729B11B4AD268024360
:1013B000194BDA6004E0184AD2688243164BDA60AF
:1013C000704729B1144A12690243134B1A6104E0B1
:1013D000114A12698243104B1A6170471249403911
:1013E000086070470F49C86470470B49C87170475F
:1013F0000948406A40F080700749486270470146DA
:101400000020054A92680A400AB1012000E000204D
:101410007047014988727047001002400000FFF8D1
:10142000FFFFF6FE000042428004424200127A00B2
:1014300000093D00230000203300002010B50446C1
:10144000FB48844209D101218803FFF7ADFF002149
:101450004FF48040FFF7A8FF32E0F648844209D1FC
:1014600001214804FFF7ADFF00214FF40030FFF7E2
:10147000A8FF25E0F048844209D101218804FFF744
:10148000A0FF00214FF48020FFF79BFF18E0EB48FE
:10149000844209D10121C804FFF793FF00214FF4D2
:1014A0000020FFF78EFF0BE0E548844208D10121C0
:1014B0000805FFF786FF00214FF48010FFF781FF3A
:1014C00010BD2DE9F04786B005460E460024A24621
:1014D00000BFA1460027B08900B100BF2F462C8A6B
:1014E0004CF6FF700440F08804432C82AC894EF621
:1014F000F3100440B08831890843718908430443DC
:10150000AC81AC8A4FF6FF400440B0890443AC8202
:1015100001A8FFF7C2FEC648874202D1DDF810A03D
:1015200001E0DDF80CA0A88900F4004040B10AEB0E
:10153000CA0000EB0A1031684900B0FBF1F807E07F
:101540000AEBCA0000EB0A1031688900B0FBF1F821
:101550006420B8FBF0F004012009642101FB10892C
:10156000A88900F4004040B1322000EBC900B0FB74
:10157000F1F000F00700044308E0322000EB09100E
:101580006421B0FBF1F000F00F0004432C8106B0A1
:10159000BDE8F0874FF41651016000218180C180C1
:1015A00001810C21418100218181704710B50246E3
:1015B0000020108A4FF2FF0318400B884C88234309
:1015C0008C882343CC8823431843108210BD00210C
:1015D000018041808180C180704721B1828942F4BD
:1015E0000052828104E082894DF6FF731A408281A5
:1015F0007047F0B50346002400260025002040F681
:101600006A17B94200D100BF1846C1F3421401F075
:101610001F06012707FA06F5012C01D10C3004E062
:10162000022C01D1103000E014301AB107682F43AA
:10163000076002E00768AF430760F0BD1AB1838A14
:101640000B43838202E0838A8B4383827047028A42
:101650004FF6F0731A400282028A0A4302827047F0
:1016600082894FF2FF731A40828182890A43828104
:10167000704721B1828942F00202828104E08289AE
:101680004FF6FD731A4082817047028A4FF6DF736E
:101690001A400282028A0A430282704721B1028AFA
:1016A00042F48042028204E0028A4BF6FF731A4041
:1016B00002827047C1F30802828070470146888821
:1016C000C0F308007047818941F0010181817047B2
:1016D000028BD2B20283028B42EA0122028370475C
:1016E000028B02F47F420283028B0A43028370471B
:1016F00021B1828A42F02002828204E0828A4FF67F
:10170000DF731A408282704721B1828A42F0100250
:10171000828204E0828A4FF6EF731A408282704719
:1017200021B1828A42F00802828204E0828A4FF666
:10173000F7731A408282704721B1828942F40042D5
:10174000828103E08289C2F30E028281704721B157
:10175000828A42F40062828204E0828A4FF2FF733E
:101760001A4082827047828A4FF6FB731A40828247
:10177000828A0A438282704721B1828A42F0020241
:10178000828204E0828A4FF6FD731A40828270479B
:1017900002460020B1F5007F00D100BF13880B4046
:1017A0000BB1012000E00020704701F40072B2F597
:1017B000007F00D100BFCA430280704770B5024667
:1017C000002400230025002040F66A16B14200D113
:1017D00000BFC1F3421501F01F03012606FA03F30F
:1017E000012D02D19689334006E0022D02D1168ADE
:1017F000334001E0968A33400C12012606FA04F4C5
:101800001688344013B10CB1012000E0002070BDF7
:1018100010B50022002340F66A14A14200D100BF97
:101820000A1201249440A3B2DC43048010BD0000DE
:10183000003801400044004000480040004C004097
:101840000050004010B50446FE48844208D10121F2
:10185000C014FFF7A9FD0021E014FFF7A5FDC4E0C7
:10186000B4F1804F08D101210846FFF7AAFD0021FD
:101870000120FFF7A6FDB8E0F348844208D101211A
:101880000220FFF79EFD00210220FFF79AFDACE049
:10189000EE48844208D101210420FFF792FD002187
:1018A0000420FFF78EFDA0E0E948844208D1012121
:1018B0000820FFF786FD00210820FFF782FD94E055
:1018C000E448844208D101211020FFF77AFD00216D
:1018D0001020FFF776FD88E0DF48844208D101211F
:1018E0002020FFF76EFD00212020FFF76AFD7CE03D
:1018F000DA48844208D101214014FFF755FD002148
:101900006014FFF751FD70E0D548844209D10121F0
:10191000C804FFF749FD00214FF40020FFF744FD04
:1019200063E0D048844209D101210805FFF73CFD5E
:1019300000214FF48010FFF737FD56E0CA4884427B
:1019400009D101214805FFF72FFD00214FF40010B8
:10195000FFF72AFD49E0C548844208D10121402013
:10196000FFF72FFD00214020FFF72BFD3DE0C04891
:10197000844208D101218020FFF723FD002180202F
:10198000FFF71FFD31E0BB48844208D101218015DB
:10199000FFF717FD0021A015FFF713FD25E0B6485E
:1019A000844209D101210804FFF7FEFC00214FF415
:1019B0008030FFF7F9FC18E0B048844209D10121DA
:1019C0004804FFF7F1FC00214FF40030FFF7ECFC76
:1019D0000BE0AB48844208D101218804FFF7E4FC06
:1019E00000214FF48020FFF7DFFC10BD00220288A9
:1019F000944B98420ED0994B98420BD0B0F1804F47
:101A000008D0914B984205D0904B984202D0904B11
:101A1000984204D14FF68F731A404B881A438D4B6E
:101A2000984207D08C4B984204D04FF6FF431A409F
:101A3000CB881A4302808B8883850B880385814B72
:101A400098420BD0854B984208D08B4B984205D0DA
:101A50008A4B984202D08A4B984201D10B7A038676
:101A600001238382704770B5002400220023058C77
:101A70004FF6FE7635400584028C8388048B4FF642
:101A80008F752C40B51E2C400D882C43751E2A40A6
:101A90000D892A434D882A436A4DA8420BD06F4DC9
:101AA000A84208D0744DA84205D0744DA84202D077
:101AB000734DA84213D14FF6F7752A404D892A433A
:101AC0004FF6FB752A408D882A434FF6FF652B4061
:101AD0004FF6FF552B408D892B43CD892B438380B7
:101AE0000483CD888586028470BD70B500240022F1
:101AF0000023058C4FF6EF7635400584028C8388F1
:101B0000048B48F6FF752C404FF6FF452C400D889E
:101B10004FF6FF7606EA05252C434FF6DF752A407F
:101B20000D8906EA05152A434D8806EA05152A435C
:101B3000444DA84202D0494DA8421DD14FF67F75B1
:101B40002A404D894FF6FF7606EA05152A434FF6DF
:101B5000BF752A408D8806EA05152A434FF6FF35E2
:101B60002B404FF2FF752B408D8906EA85052B43EC
:101B7000CD8906EA85052B4383800483CD880587BC
:101B8000028470BD70B5002400220023058C4FF63E
:101B9000FF6635400584028C8388848B4FF68F75F1
:101BA0002C404FF6FC752C400D882C434FF6FF550A
:101BB0002A400D894FF6FF7606EA05252A434D880F
:101BC00006EA05252A431F4DA84202D0234DA8420C
:101BD0001DD14FF2FF752A404D894FF6FF7606EA78
:101BE00005252A434FF6FF352A408D8806EA05254C
:101BF0002A434EF6FF752B404DF6FF752B408D891D
:101C000006EA05152B43CD8906EA05152B4383808B
:101C10008483CD888587028470BD70B5002200233F
:101C20000024058C4EF6FF7635400584038C8488AD
:101C3000828B48F6FF752A404FF6FF452A400D88F3
:101C400020E00000002C014000040040000800409B
:101C5000000C00400010004000140040003401401F
:101C6000004C014000500140005401400018004069
:101C7000001C0040002000400040014000440140A2
:101C8000004801404FF6FF7606EA05252A434DF647
:101C9000FF752B400D8906EA05352B434D8806EA72
:101CA00005352B43FA4DA84202D0FA4DA84208D17F
:101CB0004BF6FF752C408D894FF6FF7606EA8515A9
:101CC0002C4384808283CD88A0F84050038470BD6B
:101CD000828B4FF2FF331A408283828B4FF6FF7361
:101CE00003EA01231A4382837047F0B50C46154678
:101CF000002200210026078C4EF6FF7C07EA0C0725
:101D00000784828B018C4FF6FF7707EA043640F692
:101D1000FF473A404FF6FF7707EA05273A434FF669
:101D2000FF7707EA03373A43D94FB8420ED0D94F6D
:101D3000B8420BD0B0F1804F08D0D74FB84205D091
:101D4000D64FB84202D0D64FB84206D14DF6FF77F3
:101D5000394046F48057394305E047F6FF5739408C
:101D600044F48057394382830184F0BD828B4FF65F
:101D7000F3731A408283828B0A4382837047F0B5E3
:101D80000C461546002200210026078C4FF6FF6CFA
:101D900007EA0C070784828B018C4FF6FF7707EA6E
:101DA00004264FF60C773A404FF6FF7707EA031701
:101DB0002F433A43B64FB8420ED0B64FB8420BD07D
:101DC000B0F1804F08D0B44FB84205D0B34FB842FD
:101DD00002D0B34FB84206D14FF6FF57394046F410
:101DE0008077394305E04FF2FF57394044F480775C
:101DF000394382830184F0BD028B4FF2FF331A40D6
:101E00000283028B4FF6FF7303EA01231A43028316
:101E10007047F0B50C461546002200210026078CBD
:101E20004FF6EF7C07EA0C070784028B018C4FF614
:101E3000FF7707EA041640F6FF473A404FF6FF7770
:101E400007EA03373A434FF6FF7707EA05273A4395
:101E50008F4FB8420ED08F4FB8420BD0B0F1804FA9
:101E600008D08D4FB84205D08C4FB84202D08C4F6D
:101E7000B84206D14FF6DF77394046F010073943B4
:101E800005E04FF65F77394044F01007394302838D
:101E90000184F0BD028B4FF6F3731A400283028B6C
:101EA0000A4302837047F0B50C4615460022002114
:101EB000068C4FF6FE773E400684028B018C4FF66F
:101EC0000C7632407E1C06EA03162E433243704ED7
:101ED000B0420ED06F4EB0420BD0B0F1804F08D060
:101EE0006D4EB04205D06D4EB04202D06C4EB04245
:101EF00006D14FF6FD76314044F00106314305E04E
:101F00004FF6F576314044F00106314302830184F7
:101F1000F0BD70B505460C465D4885420ED05D4863
:101F200085420BD0B5F1804F08D05B48854205D083
:101F30005A48854202D05A48854200D100E000BF8D
:101F4000208850B92389A28861882846FFF7ABFF13
:101F5000E1882846FFF79EFF25E0208804280AD163
:101F60002389A28861882846FFF753FFE188284625
:101F7000FFF742FF17E0208808280AD12389A288AA
:101F800061882846FFF7FBFEE1882846FFF7EEFE52
:101F900009E02389A28861882846FFF7A6FEE18828
:101FA0002846FFF795FE70BD2DE9F04105460C4629
:101FB00000260127608808B9022600E00026A088D4
:101FC000012801D1022700E001272088A0B9238938
:101FD000A28861882846FFF766FFE1882846FFF758
:101FE00059FF23893A4631462846FFF712FFE18818
:101FF0002846FFF701FF13E02389A288618828465D
:10200000FFF707FFE1882846FFF7F6FE23893A46E7
:1020100031462846FFF747FFE1882846FFF73AFF99
:10202000BDE8F0810A884B881A438B881A43CB8815
:102030001A430B891A434B891A438B891A43A0F818
:10204000442070474FF6FF71818000210180C180DC
:102050004180017270470021018041808180C180F0
:10206000018141818181C1817047002101804180CE
:10207000012181800021C180018170470021018000
:1020800041808180C1800181418181817047000050
:10209000002C0140003401400004004000080040D2
:1020A000000C004021B1028842F00102028004E0ED
:1020B00002884FF6FE731A400280704731B1B0F8C3
:1020C000442042F40042A0F8442005E0B0F8442047
:1020D000C2F30E02A0F8442070471AB183890B4363
:1020E000838102E083898B438381704781827047BB
:1020F00041EA0203A0F8483070471AB183890B43C4
:10210000838102E083898B438381704701894FF685
:10211000F8721140018170470A46002101894FF68B
:102120008F73194011430181704730B504460D4645
:1021300029462046FFF7F0FF208940F00700208164
:1021400030BD2DE9F04104460D4616461F46602D70
:1021500006D13B46012231462046FFF75AFE05E0F4
:102160003B46012231462046FFF79DFE2946204688
:10217000FFF7D2FF208940F007002081BDE8F08101
:1021800030B50C4600210189C9B24FF6FF7505EA4A
:102190000325154325432943018130BD2DE9F04135
:1021A00005460E4617469846002443463A463146B1
:1021B0002846FFF7E5FF2C894FF6F870044044F0FD
:1021C00007044FF68F70044044F070042C81BDE882
:1021D000F081F0B504460D4616461F463B46324692
:1021E00029462046FFF7CCFF208940F4804020811B
:1021F000F0BD0185828270470A46002101884FF6B2
:102200008F731940114301807047F0B50C46154695
:102210001E460021002200230189028B038C4FF609
:10222000F877394021434FF6FC473A4040F2011716
:102230003A434FF6DD773B404FF6FF7707EA061744
:102240002F433B43018102830384F0BD0A460021F2
:10225000018B4FF68F7319401143018370470A4673
:102260000021018B48F6FF7319404FF6FF7303EA14
:1022700002231943018370470A460021818B4FF6E0
:102280008F7319401143818370470A460021818B67
:1022900048F6FF7319404FF6FF7303EA0223194310
:1022A0008183704721B1028842F08002028004E0FD
:1022B00002884FF67F731A400280704721B18288EE
:1022C00042F00402828004E082884FF6FB731A40D9
:1022D0008280704721B1828842F00802828004E047
:1022E00082884FF6F7731A408280704721B1828846
:1022F00042F00102828004E082884FF6FE731A40A9
:10230000828070470A460021018B4FF6F77319400F
:102310001143018370470A460021018B4FF2FF737E
:1023200019404FF6FF7303EA0223194301837047F4
:102330000A460021818B4FF6F773194011438183C0
:1023400070470A460021818B4FF2FF7319404FF608
:10235000FF7303EA02231943818370470A46002171
:10236000018B4FF6FB7319401143018370470A46F6
:102370000021018B4FF6FF3319404FF6FF7303EA3C
:1023800002231943018370470A460021818B4FF6CF
:10239000FB7319401143818370470A460021818BEA
:1023A0004FF6FF3319404FF6FF7303EA0223194338
:1023B000818370470A460021018B4FF67F731940D5
:1023C0001143018370470A460021018BC1F30E01BE
:1023D0004FF6FF7303EA02231943018370470A464D
:1023E0000021818B4FF67F73194011438183704721
:1023F0000A460021818BC1F30E014FF6FF7303EAF9
:1024000002231943818370470A460021018C4FF64D
:10241000FD7319401143018470470A460021018C65
:102420004FF6F77319401143018470470A460021A3
:10243000018C4FF6DF7319404FF6FF7303EA021366
:102440001943018470470A460021018C4FF67F73BF
:1024500019404FF6FF7303EA0213194301847047D2
:102460000A460021018C4FF6FF5319404FF6FF73C7
:1024700003EA02231943018470470A460021018CB4
:102480004FF2FF7319404FF6FF7303EA022319431B
:10249000018470470A460021018C4DF6FF731940F4
:1024A0004FF6FF7303EA023319430184704730B5D6
:1024B000002301248C40A3B2048C9C430484048C2C
:1024C00002FA01F5ADB22C43048430BD30B50023CF
:1024D00004248C40A3B2048C9C430484048C02FA30
:1024E00001F5ADB22C43048430BD70B50346002025
:1024F00000241846183001258D40ACB21D8CA54330
:102500001D8409B1082909D100EB6100056825F097
:10251000700505600568154305600EE00D1FC5F3E5
:102520004E052844056825F4E045056005684FF62A
:10253000FF7606EA02263543056070BD21B10288A8
:1025400042F00202028004E002884FF6FD731A4056
:102550000280704721B1028842F00402028004E048
:1025600002884FF6FB731A400280704721B18288BF
:1025700042F08002828004E082884FF67F731A4026
:102580008280704702884FF6F7731A4002800288F3
:102590000A430280704782884FF68F731A40828008
:1025A00082880A438280704702894FF6F8731A4086
:1025B000028102890A430281704702894FF67F73C4
:1025C0001A40028102890A43028170478184704760
:1025D0008185704781867047018770478187704782
:1025E000A0F84010704702884FF6FF431A4002805F
:1025F00002880A43028070470146888E7047014670
:10260000088F70470146888F70470146B1F8400037
:1026100070470146888C70470146088D7047024616
:102620000020138A0B400BB1012000E0002070470E
:10263000CA430282704730B50246002000230024BE
:10264000158A05EA0103958905EA010413B10CB165
:10265000012000E0002030BDCA4302827047000024
:102660000948804709480047FEE7FEE7FEE7FEE726
:10267000FEE7FEE7FEE7FEE7FEE7FEE70448054962
:10268000054A064B704700007F270008ED00000850
:10269000A8010020A8070020A8030020A80300200C
:1026A0000CB50020019000906C48006840F4803028
:1026B0006A49086000BF6948006800F40030009073
:1026C0000198401C0190009818B90198B0F5A06FCE
:1026D000F1D16248006800F4003010B10120009090
:1026E00001E0002000900098012843D15C48006878
:1026F00040F010005A4908600846006820F00300C6
:1027000008600846006840F00200086053484068CE
:10271000524948600846406848600846406840F4AE
:10272000806048600846406820F47C104860084695
:10273000406840F4E81048600846006840F0807047
:10274000086000BF4548006800F000700028F9D01C
:102750004248406820F0030040494860084640680D
:1027600040F00200486000BF3C48406800F00C00A8
:102770000828F9D10CBD10B5FFF792FF10BD10B5B8
:102780003648006840F00100344908600846406857
:1027900034490840314948600846006832490840D9
:1027A0002E4908600846006820F48020086008462A
:1027B000406820F4FE0048604FF41F008860FFF777
:1027C000DAFF4FF000602949086010BD10B5002104
:1027D00000200022214B5B6803F00C0121B1042989
:1027E00006D0082928D107E0214B224C236027E09E
:1027F0001F4B204C236023E0184B5B6803F47010E0
:10280000164B5B6803F48032022303EB904022B93D
:10281000194B4343174C23600DE0104B5B6803F4E6
:10282000003323B1144B4343124C236003E0104B9D
:102830004343104C236003E00D4B0E4C236000BF5C
:1028400000BF064B5B68C3F303130C4CE15C094B00
:102850001B68CB40074C236010BD000000100240F5
:10286000002002400000FFF8FFFFF6FE08ED00E048
:1028700000127A003800002000093D003C000020D2
:1028800010B54C1084EA530404D54042C1F1000154
:1028900038BF491E1B4204D55242C3F1000338BF62
:1028A0005B1E00F03BF814F0804F04D04042C1F1B1
:1028B000000138BF491E14F0004F04D05242C3F14A
:1028C000000338BF5B1E10BD4FF0000200B5134679
:1028D00094469646203922BFA0E80C50A0E80C5040
:1028E000B1F12001BFF4F7AF090728BFA0E80C50F1
:1028F00048BF0CC05DF804EB890028BF40F8042BEA
:1029000008BF704748BF20F8022B11F0804F18BF56
:1029100000F8012B704770477047704753EA020C6C
:1029200000F069802DE9F04B4FF00006002B1FBF2F
:10293000B3FA83F503FA05F424FA05F65E4012BFF4
:102940001643B2FA82F502FA05F4C5F120051EBF5E
:1029500022FA05FC44EA0C04203556EA044C4FEAFE
:10296000144418BF641C4FF000084FF00009904257
:1029700071EB030C39D3002919BFB1FA81F701FAC1
:1029800007F6B0FA80F700FA07F6C7F120071EBF76
:1029900020FA07FC46EA0C062037B6FBF4FCA7EB4E
:1029A0000507103F07F01F0BCBF120060CFA0BFBBD
:1029B0002CFA06F644BFB3460026202FA4BF5E467D
:1029C0004FF0000B5BEA060C08BF4FF0010B19EB50
:1029D0000B09ABFB027C48EB0608C01B06FB02CCD4
:1029E0000BFB03CC71EB0C01C1E70B4602464146E1
:1029F0004846BDE8F08B13B54FF000004FF00001E2
:102A0000AFF30080BDE81C407047754600F028F821
:102A1000AE4605006946534620F00700854618B0CB
:102A200020B5FFF72BFEBDE820404FF000064FF029
:102A300000074FF000084FF0000B21F00701AC46F3
:102A4000ACE8C009ACE8C009ACE8C009ACE8C00912
:102A50008D4670470446AFF300802046FDF78DFB9E
:102A6000004870474801002001491820ABBEFEE72E
:102A7000260002007047000021F00042A2F16052DF
:102A8000B2F5801F01F0004328BFD2F17F6C0BD953
:102A90005FEA001C43EAC20242EB507018BF704765
:102AA00028BF20F001007047B2F5801FBCBF184658
:102AB00070474FEA410C1CF5001F02D2084600F097
:102AC00090BC70B500F0F8F800000089FFF7F6BF81
:102AD0004FF00040A0F580007047000010B591EA6B
:102AE000030F48BF83F0004300F14E81841A71EB5D
:102AF000030C05D2121943EB0C03001B61EB0C0114
:102B0000DFF824E14FEA1154A4EB135C1EEA430FF3
:102B100018BF9EEA445F73D023EA0E03DCF1200E57
:102B200021EA045143F4801332D322FA0CFE10EB55
:102B30000E0023FA0CFE41EB0E01CCF1200E03FA3D
:102B40000EFE10EB0E0051F10001B1F5801FCCF12B
:102B5000200E32D201EB045112FA0EF2BDE8104001
:102B600058BF7047401C38BF5FEA420218BF704729
:102B7000002814BF20F0010041F100014FEA410399
:102B800013F5001F38BF7047A1F1C04100F0E2B853
:102B9000012A43EB0302ACF1200CDCF11F0E32BF23
:102BA0004FF0000E23FA0CF310EB030041EB04513D
:102BB000B4EB115FD0D0A1EB045101F580114908AD
:102BC0005FEA300001EB04510ED350F1000038BF32
:102BD00012FA0EFE08D1BDE81040C9E7401C38BF0C
:102BE0005FEA4202CAD1C3E7BDE810404FEA4103A1
:102BF00013F5001F38BF7047A1F1C04100F0AAB81B
:102C00009EEA445F08D011EA5E0FBDE8104004BFA1
:102C100001F0004100207047BDE8104070B500F0A1
:102C20004BF800BF64FBBE3E0000E0FF4FEA4103EB
:102C30004FEA5353A3F58063D3F11E03C8BFD3F10A
:102C4000210C0CDD4FF0004242EAC12242EA505210
:102C500032FA03FC8CEAE17CACEBE1707047102B9C
:102C6000C4BF0020704703F5787CBCF1FF3F04D05F
:102C70006FF0004282EA2100704770B500F01CF846
:102C80004992248000207047F2E710F0004248BFCC
:102C90004042B0FA80F310FA03F10AD0C3F11D03E9
:102CA00003F580634FEA415002EB035202EBD1215E
:102CB00070474FF0000070470EF1020E2EF0030E29
:102CC0005EF8046B364205D4012A43EB030515F583
:102CD000001F12D8012841EB010C1CF5001F0CD875
:102CE0000ED14FEAD17C15F5001F0CEB4C0C0CF10A
:102CF000020C08BF4CEBD37C04E04FF0080C01E061
:102D00004FEAD37C0CEB4C0526FA05F606F00706D5
:102D1000B6F1040C06D20EEB860CBDE870404CF008
:102D2000010C6047DFE80CF0090B02024FF0004194
:102D30004FF00000A1F5002170BD19461046012892
:102D400051EB010418BFD4F5001484BF002001F03A
:102D5000004170BD0808A0F500114FEA310170472D
:102D600091EA030F10B581F000413FF5BFAE83F04B
:102D7000004300F009B8000010B591EA030F48BF06
:102D800083F000433FF5B2AE841A71EB030C07D217
:102D900012198CF0004C43EB0C03001B61EB0C018F
:102DA000DFF8A4E14FEA1154A4EB135C1EEA430FD1
:102DB00018BF9EEA445F00F0B08023EA6E035242DF
:102DC00021EA0451C3EB6E0338BF5B1EDCF1200E19
:102DD00025D322FA0CFE10EB0E0043FA0CFE41EB59
:102DE0000E01CCF1200E03FA0EFE10EB0E0051F195
:102DF0000001CCF1200E29D412FA0EF201EB04519D
:102E0000BDE8104058BF7047401C1CBFB2F1004FD6
:102E1000704700280CBF491C20F00100704712EBDE
:102E2000020E43EB030218BF4FF0010E4EEA4202BE
:102E3000ACF1200CDCF11E0E54D943FA0CFE10EB61
:102E40000E0051F1FF31CCF11E0ED5D50EF1010E61
:102E500012FA0EFE404141EB010101EB445C5FEAD6
:102E60005C5C10D910EBDE7001EB045138BFBEF191
:102E7000004FBDE8104018BF704700280CBF491C28
:102E800020F00100704730D24FEAD42C11F5001128
:102E900024F400641BD0B1FA81F20B3AA41AA41EE8
:102EA000D2F12003914030FA03F31943904001EB33
:102EB000CC71002C01EB0451BDE81040A8BF704755
:102EC00001F1C0414FF0000001F000417047B0FA3D
:102ED00080F310FA03F100D110BDE41A173C480545
:102EE000C90AE4E701EB045110BD491001EB04519C
:102EF000BDE810404FEA300002E04FF0000170479B
:102F00004A0008BF0042F8D0B2F5001F28BF704742
:102F100001F000414FF0000070479EEA445F07D087
:102F200011EA5E0FBDE8104004BF00210020704789
:102F3000BDE8104070B5FFF7BFFE00BF40DFF63EB2
:102F400083F00041104670470000E0FF43004FEA65
:102F5000D30C4FEA3C0C43401FBF40070CF16051BB
:102F600013F0FE4F70471CF0006F03D100200CF0EF
:102F7000004170470CF0004343EA507010B540EA3E
:102F8000CC0000F0E8F900BF000000924FEA000119
:102F9000FFF7E0BE4FF000414FF00000A1F5002127
:102FA0007047000090EA010F48BF81F0004100F136
:102FB0002482421A3CBF801A89184FEAD0524FF03F
:102FC0007F4C1CEA410FA2EBD15318BF9CEA026F61
:102FD00000F03B804FF0004C4CEA00204CEA01210D
:102FE00021FA03FC10EB0C0C1ED202F1FF325FEA57
:102FF0001C2040EBC25038BF70471CF07F0F4FEAD7
:10300000400C18BFBCF17F4F38BF7047C3F120039D
:10301000994008BF20F00100BCF17F4F38BF7047D6
:10302000A0F1C04000F0DDB94FEA3C00000A40EBDF
:10303000C25028BF1CF0FF0F4FEA400CE6D018BF6B
:10304000BCF17F4F38BF7047EAE79CEA026F05D0BA
:1030500010EA5C0F08BF00F00040704710B500F0A8
:103060007AF900BF64FBBE3E4FF47F0C1CEAD0121D
:103070001EBF1CEAD11392EA0C0F93EA0C0F00F06A
:10308000858090EA010F48BF42F4807240F4000C42
:1030900041F400002CF07F4120F07F4000B58142D8
:1030A000A2EB03020FF2081CACEB504EC0F1000083
:1030B0009EF800E04FEA4E0E00FB0EFC38BF4900C0
:1030C0004FEA2C1C02F5FA020CFB0EF34FEACE1E5F
:1030D0004FEA112C4FEAC1210EEB635E42EB224214
:1030E0000EFB0CFC4FEA1C5300FB03114FEA112CA2
:1030F0004FEA01310EFB0CFC4FEADC4C00FB0C11DB
:10310000C14228BF09184CEB03335DF804EB10EB08
:10311000410143EBC250B2F57C0F38BF704729D54F
:1031200012F0F00F1CBF00F1C04000F000407047EB
:10313000008182838485868788898B8C8D8E8F9190
:103140009293959697999A9C9D9FA0A2A3A5A7A8B4
:10315000AAACAEB0B2B3B5B7B9BCBEC0C2C5C7C9E0
:10316000CCCED1D4D7D9DCDFE2E6E9ECF0F3F7FA44
:10317000FE0000004FEA400C0CF1807CBCF17E4F59
:1031800028BF7047B0F1C04000F02BB990EA010FA2
:103190000CEAD11348BF42F48072624538BF6345E0
:1031A00007D213F47F0F16D080EA010000F0004030
:1031B000704710B500F0CFF8097EFC3E00F005B86E
:1031C00080EA010000F00040704780EA010000F052
:1031D000004000F006B912F47F0F04BF02487047A8
:1031E00080EA010000F0FDB80000C07F41000B0E36
:1031F000D3F19E0208D950F400034FEA032323FAC7
:1032000002F048BF4042704710B500F0A4F800BF7C
:1032100049922480002070476FF0004282EA20002B
:103220007047000010F0004148BF4042B0FA80F300
:1032300010FA03F2C3F19D030BD051EAC35101EB25
:103240001220530638BF704700F1010008BF20F07C
:10325000010070474FF47F0C1CEAD0121EBF1CEA1D
:10326000D11392EA0C0F93EA0C0F00F0478090EA1A
:10327000010F48BF42F480724FF0004C4CEA00202E
:103280004CEA012102EB0302A0FB0113A2F50002AC
:10329000002918BF43F001035B0028BF4FEA330346
:1032A00042EB22425FEA132C4CEBC2502EBFBCEB28
:1032B000436FB2F57C0F70474FEA036CBCF1004FCF
:1032C00008BF20F00100B2F57C0F38BF70470BD566
:1032D00082F0FF0212F5803FC8BF704700F1C04086
:1032E000D8BF00F00040704700F5000C5FEA4C0CBE
:1032F00048BF7047B0F1C04000F073B890EA010FCA
:103300000CEAD11348BF42F48072624538BF63456E
:1033100004D280EA010000F00040704710B500F0D0
:103320001AF800BF8900013E00F007B800F009B8A4
:103330005FEA410C5FEA1C6C08D080EA010000F0F3
:1033400050B85FEA400C5FEA1C6CF6D14FF00040C9
:10335000A0F5800070470EF1020E2EF0030E5EF80D
:10336000044B244204D44FEA4102B2F17F4F11D8FA
:103370004FEA4003B3F17F4F0CD80ED14FEAD07C17
:10338000B2F17F4F0CEB4C0C0CF1020C08BF4CEB74
:10339000D17C04E04FF0080C01E04FEAD17C0CEB4B
:1033A0004C0324FA03F404F00704B4F1040C06D22D
:1033B0000EEB840CBDE810404CF0010C6047DFE8D8
:1033C0000CF0070802024FF00040A0F5800010BD8D
:1033D0000846420018BFD2F1807288BF00F000405A
:1033E00010BDFF2141EAD050C005704790EA010F9F
:1033F00048BF81F000413FF5DCAD421A04D882F0AD
:103400000042A0EB020011444FEAD0524FF07F4C33
:103410001CEA410FA2EBD15318BF9CEA026F4AD0BD
:103420004FF0004C4CEA00204CEA012121FA03FC49
:10343000B0EB0C0C0FD412F0FE0F36D05FEA4C004C
:103440001DD5001240EBC25038BF70471CF03F0F33
:1034500018BF70470BE0A2F101025FEA1C2040EBAD
:10346000C25038BF70471CF07F0F18BF7047C3F1C0
:103470002003994014BF401E20F0010070478008CF
:103480004FEA122308BF7047B0FA80FCA2EB0C028F
:10349000CCF1280C60FA0CF093EA122F04BF00EB79
:1034A000C25070474FEAC3707047130A5FEADC10DE
:1034B00008BF7047F6E79CEA026F04D010EA5C0F81
:1034C00008BF0020704710B5FFF745FF40DFF63E0C
:1034D00081F00040704700004FEAC1230A1543EA1B
:1034E00050534FEAC02C18BF43F000431BD4A2F244
:1034F0004E02D2F57C7240F34280502AA8BF50227F
:1035000023FA02F12CFA02F0D2F1200260B403FA9D
:1035100002F588BF2843C2F1000223FA02F598BFE2
:10352000284360BC704702F57C7212F5826F08BFB9
:1035300023F00043D2F12E0221DB1AD0502AA8BF7B
:10354000502223FA02F12CFA02F0D2F1200260B4E8
:1035500003FA02F588BF2843C2F1000223FA02F5FC
:1035600098BF284360BC4042C1F1000138BF491EEA
:1035700070479CF0000F08BF93F0004FDED070B58D
:10358000FFF79AFB9224498000214FF0000070471A
:103590006FEAE17080F0004170470000BC35000820
:1035A000000000204C000000280100080836000838
:1035B0004C0000205C0700004401000800000000EF
:1035C00000000000000000000000000000000000FB
:1035D00000000000010000000100000000000000E9
:1035E00000000001020304010203040607080902A7
:1035F0000406080000A24A040000000000000000C9
:0836000001020304060708099A
:04000005080000ED02
:00000001FF
